:020000040000FA
:04000000A1EF03F079
:100600000000B8EC03F075EC03F0500E016EC30E61
:10061000026E000E036E000E046E0106000E025AFA
:10062000035A045A01280AE1022808E1032806E1D6
:100630000428D8A41EEF03F020EF03F00DEF03F021
:10064000500E056EC30E066E000E076E000E086E8D
:100650000506000E065A075A085A05280AE1062818
:1006600008E1072806E10828D8A439EF03F03BEF9A
:1006700003F028EF03F0500E096EC30E0A6E000E51
:100680000B6E000E0C6E0906000E0A5A0B5A0C5A1D
:1006900009280AE10A2808E10B2806E10C28D8A459
:1006A00054EF03F056EF03F043EF03F0500E0D6EDE
:1006B000C30E0E6E000E0F6E000E106E0D06000EB5
:1006C0000E5A0F5A105A0D280AE10E2808E10F2879
:1006D00006E11028D8A46FEF03F071EF03F05EEF8E
:1006E00003F003EF03F000EF00F0145013101210AA
:1006F00007E1140E115CD8B080EF03F082EF03F035
:1007000085EF03F0818086EF03F08190010E1126C2
:10071000000E122213221422650E1118121013104B
:100720001410D8A496EF03F098EF03F0A0EF03F0B5
:10073000000E116E000E126E000E136E000E146E7F
:100740001200780EF66E070EF76E000EF86E00EED1
:1007500015F010EE04F00900F5CFEEFFE550E15082
:10076000FAE1146A136A126A116A000101EF03F0D8
:0C077000936A816A81821200140000006C
:020000040020DA
:08000000FFFFFFFFFFFFFFFF00
:020000040030CA
:0E000000FF071F1FFF8285FF0FC00FE00F409C
:00000001FF
