:020000040000FA
:04000000B6EF0AF05D
:100600000054656D706572617475726500001250FA
:10061000800B1B6E12501224216E11AE12EF03F0EC
:1006200014EF03F015EF03F021802150D8B41BEF35
:1006300003F01DEF03F030EF03F02128D8A423EFDF
:1006400003F025EF03F02DEF03F0000E0F6E000E08
:10065000106E000E116E000E126E118E38EF03F048
:10066000000E0F6E000E106E000E116E000E126E58
:100670001650800B1B1A16501624206E15AE43EF31
:1006800003F045EF03F046EF03F020802050D8B48C
:100690004CEF03F04EEF03F061EF03F02028D8A4F5
:1006A00054EF03F056EF03F05EEF03F0000E136E0D
:1006B000000E146E000E156E000E166E158E69EF8C
:1006C00003F0000E136E000E146E000E156E000E79
:1006D000166E2050D8B46FEF03F071EF03F079EF8E
:1006E00003F02150D8A477EF03F079EF03F083EF04
:1006F00003F0000E0F6E000E106E000E116E000E55
:10070000126E19EF05F015500F02F3CF26F0F4CF5B
:1007100027F026501C6E1D6A1E6A1F6A2750226E23
:10072000236A246A256A14501002F3CF26F0F4CF0E
:1007300027F026501C26000E1D221E221F222750A5
:100740002226000E23222422252213501102F3CF49
:1007500026F0F4CF27F026501C26000E1D221E2264
:100760001F2227502226000E2322242225221EC0CB
:100770001FF01DC01EF01CC01DF01C6A135010029B
:10078000F3CF26F0F4CF27F026501C2627501D2249
:10079000000E1E22000E1F2214500F02F3CF26F06F
:1007A000F4CF27F026501C2627501D22000E1E22B3
:1007B000000E1F221EC01FF01DC01EF01CC01DF029
:1007C0001C6A13500F02F3CF26F0F4CF27F0265007
:1007D0001C2627501D22000E1E22000E1F2215501F
:1007E0001002F3CF26F0F4CF27F026502226275010
:1007F0002322000E2422000E252214501102F3CFD2
:1008000026F0F4CF27F02650222627502322000E70
:100810002422000E252215501102F3CF26F0F4CF2A
:1008200027F02650176E2750186E196A1A6A19C0D9
:100830001AF018C019F017C018F0176A17502226BE
:1008400018502322195024221A5025221CC017F0B8
:100850001DC018F01EC019F01FC01AF0190E36EF97
:1008600004F0D8901A32193218321732E82E31EFCC
:1008700004F01750222618502322195024221A500F
:1008800025221EC01FF01DC01EF01CC01DF01C6ADA
:10089000205021C017F0186A1726000E1822820E69
:1008A0001724266EFF0E1820276E6CEF04F0D890E8
:1008B00022362336243625361FAE61EF04F063EF6F
:1008C00004F064EF04F02280D8901C361D361E36EA
:1008D0001F362606D8A0270624AE71EF04F073EF6A
:1008E00004F057EF04F0206A1FAE79EF04F07BEFBD
:1008F00004F09FEF04F0FF0E1C14176EFF0E1D1482
:10090000186EFF0E1E14196E7F0E1F141A6E1750EC
:10091000181019101A10D8B490EF04F092EF04F0E8
:1009200096EF04F0010E206E9FEF04F022A09BEFE3
:1009300004F09DEF04F09FEF04F092EF04F02050DC
:10094000D8B4A5EF04F0A7EF04F0CBEF04F0010E4C
:100950002226000E23222422252225A0B2EF04F015
:10096000B4EF04F0CBEF04F022C017F023C018F06E
:1009700024C019F025C01AF01A341A32193218326C
:10098000173217C022F018C023F019C024F01AC083
:1009900025F0264A272A27BED6EF04F0275008E183
:1009A0002628D8A0D6EF04F0D8EF04F0E2EF04F048
:1009B000000E226E000E236E800E246E7F0E256EBA
:1009C0000FEF05F027BEEFEF04F0275006E12604F5
:1009D000D8B0EDEF04F0EFEF04F0FAEF04F0000E02
:1009E000226E000E236E000E246E000E256E1B6A12
:1009F0000FEF05F026C021F0FF0E2216FF0E231682
:100A00007F0E2416000E251621A009EF05F00BEF2E
:100A100005F00CEF05F0248ED8902130256E1B5088
:100A2000251222C00FF023C010F024C011F025C001
:100A300012F012002B50800B386E2B502B243F6E7F
:100A40002AAE25EF05F027EF05F028EF05F03F80EF
:100A50003F50D8B42EEF05F030EF05F044EF05F02D
:100A60003F28D8A436EF05F038EF05F040EF05F049
:100A7000000E286E000E296E000E2A6E000E2B6EE0
:100A80002A8E2B6A4CEF05F0000E286E000E296EA0
:100A9000000E2A6E000E2B6E2F50800B381A2F502E
:100AA0002F24406E2EAE57EF05F059EF05F05AEFA8
:100AB00005F040804050D8B460EF05F062EF05F0DB
:100AC00076EF05F04028D8A468EF05F06AEF05F04E
:100AD00072EF05F0000E2C6E000E2D6E000E2E6EC5
:100AE000000E2F6E2E8E2F6A7EEF05F0000E2C6EFC
:100AF000000E2D6E000E2E6E000E2F6E2C502D103F
:100B00002E102F10D8A487EF05F089EF05F0A1EF84
:100B100005F0000E286E000E296E000E2A6E000EE3
:100B20002B6E800E2A127F0E2B1238502B1228C0EB
:100B300028F029C029F02AC02AF02BC02BF0E1EFC1
:100B400006F03F50D8A4A7EF05F0A9EF05F0B3EFEA
:100B500005F0000E286E000E296E000E2A6E000EA3
:100B60002B6EE1EF06F040503FC030F0316A305E4E
:100B7000000E315A7F0E3024396E000E31203A6E4D
:100B800028C034F029C035F02AC036F02BC037F029
:100B9000000E286E000E296E000E2A6E000E2B6EBF
:100BA000000E3B6E000E3C6E000E3D6E000E3E6E63
:100BB000406A13EF06F04050D8B4E1EF05F0E3EFE0
:100BC00005F0FAEF05F0D89034363536363637363C
:100BD000D890283629362A362B363EAEF2EF05F06D
:100BE000F4EF05F0F5EF05F02880D8903B363C3661
:100BF0003D363E362C50345C2D5035582E503658EC
:100C00002F503758D8A007EF06F009EF06F012EF83
:100C100006F03E8C2C50345E2D50355A2E50365AEC
:100C20002F50375A402A190E406419EF06F01BEF77
:100C300006F0DBEF05F03450351036103710D8B41D
:100C400024EF06F026EF06F03EEF06F03B803EEF85
:100C500006F0D890283629362A362B363EAE33EFAA
:100C600006F035EF06F036EF06F02880D8903B36D8
:100C70003C363D363E363906D8A03A062AAE43EF1A
:100C800006F045EF06F029EF06F0406A3EAE4BEF66
:100C900006F04DEF06F071EF06F0FF0E3B14306EDC
:100CA000FF0E3C14316EFF0E3D14326E7F0E3E146B
:100CB000336E3050311032103310D8B462EF06F07A
:100CC00064EF06F068EF06F0010E406E71EF06F07B
:100CD00028A06DEF06F06FEF06F071EF06F064EFFD
:100CE00006F04050D8B477EF06F079EF06F09DEFAC
:100CF00006F0010E2826000E29222A222B222BA0E4
:100D000084EF06F086EF06F09DEF06F028C030F085
:100D100029C031F02AC032F02BC033F033343332E3
:100D200032323132303230C028F031C029F032C096
:100D30002AF033C02BF0394A3A2A3ABEA8EF06F01F
:100D40003A5008E13928D8A0A8EF06F0AAEF06F03B
:100D5000B5EF06F0000E3A6E3968000E286E000EF0
:100D6000296E000E2A6E000E2B6E3ABEC2EF06F000
:100D70003A5006E13904D8B0C0EF06F0C2EF06F0F1
:100D8000CFEF06F0000E3A6E000E396E000E286EA0
:100D9000000E296E000E2A6E000E2B6E386A39C0C6
:100DA0003FF03FA0D6EF06F0D8EF06F0DBEF06F0FD
:100DB0002A8EDCEF06F02A9ED8903F302B6E95EFFE
:100DC00005F01200096E0950D8B4E9EF06F0EBEF18
:100DD00006F00DEF07F004BEF2EF06F0F0EF06F0BC
:100DE0000DEF07F001C005F002C006F003C007F0E8
:100DF00004C008F0051E061E071E081E052A000E68
:100E000006220722082205C00BF006C00CF007C01E
:100E10000DF008C00EF015EF07F001C00BF002C096
:100E20000CF003C00DF004C00EF0015002100310CE
:100E30000410D8A41EEF07F020EF07F02AEF07F008
:100E4000000E016E000E026E000E036E000E046EA8
:100E5000BBEF07F0960E0A6E34EF07F00A2AD8901F
:100E60000E320D320C320B32000E0B14056E000EDA
:100E70000C14066E000E0D14076EFE0E0E14086E96
:100E80000550061007100810D8A449EF07F04BEFE3
:100E900007F02EEF07F059EF07F00A2A010E0B2694
:100EA000000E0C220D220E22D8900E320D320C3282
:100EB0000B32000E0B14056E000E0C14066E000EA5
:100EC0000D14076EFF0E0E14086E05500610071065
:100ED0000810D8A46EEF07F070EF07F04DEF07F0A1
:100EE00078EF07F00A06D8900B360C360D360E3622
:100EF0000DBE7DEF07F07FEF07F087EF07F0020EE2
:100F00000A6085EF07F087EF07F072EF07F00AB08D
:100F10008CEF07F08EEF07F08FEF07F00D9ED89063
:100F20000A320AC005F0066A076A086A05C008F0B6
:100F3000076A066A056A05500B1206500C12075024
:100F40000D1208500E120950D8B4A9EF07F0ABEFFC
:100F500007F0B3EF07F004BEB2EF07F0B0EF07F011
:100F6000B3EF07F00E8E0BC001F00CC002F00DC005
:100F700003F00EC004F01200433444344A6E4A5069
:100F8000D8A4C5EF07F0C7EF07F0D1EF07F0000EC8
:100F9000416E000E426E000E436E000E446E3EEF38
:100FA00008F041C045F042C046F043C047F044C09D
:100FB00048F0200EE1EF07F0D89048324732463231
:100FC0004532E82EDCEF07F04550496E438EFF0EA8
:100FD0004116FF0E4216FF0E4316000E4416960EE3
:100FE0004A5E4ABEF8EF07F0F6EF07F00EEF08F0A2
:100FF0004A50800A970FD8B000EF08F002EF08F0CF
:1010000004EF08F0C7EF07F0D89044324332423281
:1010100041324A3E04EF08F026EF08F01F0E4A6402
:1010200014EF08F016EF08F01EEF08F0C7EF07F016
:10103000D89041364236433644364A064A50D8A400
:1010400024EF08F026EF08F018EF08F04950D8B464
:101050002CEF08F02EEF08F036EF08F0441E431E88
:10106000421E416C000E42224322442241C041F004
:1010700042C042F043C043F044C044F01200000EAE
:10108000116E000E106E0ABE4AEF08F048EF08F02D
:1010900055EF08F00B50D96EDA6A2D0EDF6E104A4C
:1010A000112A096C0A1ED8B00A2A09C00EF00AC01B
:1010B0000FF06BEF08F00EC001F00FC002F0000E51
:1010C000046E0A0E036EB3EC08F001C00EF002C00D
:1010D0000FF0104A112A0FBE78EF08F00F5006E10A
:1010E0000E04D8B076EF08F078EF08F05BEF08F068
:1010F0000B501024D96EDA6ADF6AA5EF08F009C038
:1011000001F00AC002F0000E046E0A0E036E72ECCB
:1011100009F001C00CF002C00DF01006D8A01106B5
:101120000B501024D96EDA6A0C50300FDF6E09C0F4
:1011300001F00AC002F0000E046E0A0E036EB3EC5A
:1011400008F001C009F002C00AF00ABEB2EF08F0D0
:101150000A5006E10904D8B0B0EF08F0B2EF08F089
:101160007FEF08F01200066A04BEBBEF08F0B9EF8B
:1011700008F0C1EF08F0036C041ED8B0042A010E79
:10118000066E02BEC8EF08F0C6EF08F0CEEF08F01A
:10119000016C021ED8B0022A010E061A000E086E5B
:1011A000000E076E03500410D8B4D9EF08F0DBEF3F
:1011B00008F003EF09F0010E056EE3EF08F0D89098
:1011C00003360436052A04AEE8EF08F0EAEF08F02B
:1011D000DFEF08F0D890073608360350015C045062
:1011E0000258D8A0F6EF08F0F8EF08F0FDEF08F08D
:1011F0000350015E0450025A0780D8900432033233
:10120000052EEAEF08F00650D8B409EF09F00BEF0D
:1012100009F00FEF09F0076C081ED8B0082A07C0C4
:1012200001F008C002F012004F6E4FC04DF0D89090
:101230004D36D8904D36C250C30B4D10C26EC2828F
:10124000C2B225EF09F027EF09F020EF09F0C350F3
:10125000C4CF4DF04E6A4DC04EF04D6A4D10506EE9
:101260004E50516E000E2C6E000E2D6E200E2E6E06
:10127000410E2F6E9A0E136E990E146E990E156E06
:10128000400E166E50C001F051C002F0036A046AAD
:10129000000EE2EC06F001C00FF002C010F003C037
:1012A00011F004C012F007EC03F00FC028F010C0DA
:1012B00029F011C02AF012C02BF01AEC05F028C05A
:1012C00041F029C042F02AC043F02BC044F0BCECEE
:1012D00007F041C050F042C051F050C04BF051C037
:1012E0004CF01200066A02BE7AEF09F078EF09F0BE
:1012F00080EF09F0016C021ED8B0022A010E066EC2
:1013000004BE87EF09F085EF09F08BEF09F0036C5D
:10131000041ED8B0042A03500410D8B492EF09F088
:1013200094EF09F0B8EF09F0010E056E9CEF09F09B
:10133000D89003360436052A04AEA1EF09F0A3EFD6
:1013400009F098EF09F00350015C04500258D8A04E
:10135000ACEF09F0AEEF09F0B2EF09F00350015E17
:101360000450025AD89004320332052EA3EF09F03C
:101370000650D8B4BEEF09F0C0EF09F0C4EF09F091
:10138000016C021ED8B0022A01C001F002C002F0B6
:101390001200956A9450F80B946E8290C30E036EFF
:1013A000CD0EE82EFED7032EFCD70000000E016EF6
:1013B000330E7FEC0AF01B0E036E9E0EE82EFED756
:1013C000032EFCD700D0000E016E330E7FEC0AF026
:1013D000A60EE82EFED700D0000E016E330E7FEC75
:1013E0000AF000D000D00000000E016E020E7FEC6B
:1013F0000AF0A60EE82EFED700D0000E016E380EC1
:101400007FEC0AF0A60EE82EFED700D0000E016E8B
:10141000010E7FEC0AF0040E036E3E0EE82EFED79E
:10142000032EFCD7000E016E0C0E7FEC0AF0A60E08
:10143000E82EFED700D01200000E016E05507FECA2
:101440000AF039EF0AF0010E016E03C0F6FF04C086
:10145000F7FFF86A050EF76403D00800F55005D0D1
:10146000F6CFD9FFF7CFDAFFDF507FEC0AF0034A5F
:10147000042A03C0F6FF04C0F7FFF86A050EF764FC
:1014800003D00800F55005D0F6CFD9FFF7CFDAFF2B
:10149000DF500009D8A44FEF0AF051EF0AF023EF14
:1014A0000AF01200BBEC0AF0C9EC09F0060E14ECCD
:1014B00009F04BC057F04CC058F057C009F058C065
:1014C0000AF0520E0B6E3FEC08F0010E036E035053
:1014D000D8A4060E046E810E056E1CEC0AF0520EA6
:1014E000036E046AC50E056E1CEC0AF0C70E036E8F
:1014F000430EAAEC0AF056EF0AF000EF00F0026E7D
:1015000001B085EF0AF088EF0AF0828289EF0AF0D5
:10151000829202C083FF82848294958E828082921E
:101520008284829483BE97EF0AF099EF0AF090EFDD
:101530000AF08290959E1200C08EC09AC088C09614
:10154000C090C082C094C292C19AC198C46AC36A52
:10155000C2801200046E000E016E03507FEC0AF090
:10156000010E016E04507FEC0AF01200000EF86EBE
:0C157000000152EF0AF09CEC0AF012009F
:020000040020DA
:08000000FFFFFFFFFFFFFFFF00
:020000040030CA
:0E000000FF071F1FFF8285FF0FC00FE00F409C
:00000001FF
