:020000040000FA
:0400000007EF00F016
:0A000800038201ED03F038EF03F06E
:10060000000006009EA207EF03F009EF03F025EFBC
:1006100003F0014A022A890E011807E1130E02189D
:10062000D8A415EF03F017EF03F024EF03F0000E4A
:10063000026E000E016E81A020EF03F023EF03F0A5
:10064000818024EF03F081909E9203921100F28C3E
:10065000816A936A0F0EC16E30EC03F0F28E1200C5
:10066000CA84CA92CA80F90ECB6E9E929D821200F5
:10067000026A016A0390039200013FEF03F027EC46
:0A06800003F041EF03F007EF00F074
:020000040020DA
:08000000FFFFFFFFFFFFFFFF00
:020000040030CA
:0E000000FF071F1FFF8285FF0FC00FE00F409C
:00000001FF
