:020000040000FA
:0400000007EF00F016
:0A000800078201ED03F091EF03F011
:1006000000000600F2A407EF03F009EF03F02BEF60
:1006100003F0080ED624D66E000ED720D76E054AFA
:10062000062A110E051807E1270E0618D8A41BEF9D
:1006300003F01DEF03F02AEF03F0000E066E000E2C
:10064000056E81A026EF03F029EF03F081802AEFE9
:1006500003F08190F2949EA030EF03F032EF03F0AC
:1006600052EF03F0DE0ECE24CE6E0B0ECF20CF6EF7
:10067000034A042A290E03180410D8A442EF03F0F9
:1006800044EF03F051EF03F0000E046E000E036E12
:1006900081A24DEF03F050EF03F0818251EF03F0A0
:1006A00081929E909EA257EF03F059EF03F075EFF1
:1006B00003F0014A022A110E011807E1270E021861
:1006C000D8A465EF03F067EF03F074EF03F0000EBA
:1006D000026E000E016E81A470EF03F073EF03F061
:1006E000818474EF03F081949E9207921100F28C42
:1006F000816A936A0F0EC16E9CEC03F084EC03F0E8
:10070000A7EC03F0F28E1200CD80CD9ECD92CD9657
:100710000B0ECF6EDC0ECE6ECD9ACD989E909D8046
:100720001200066A056A046A036A026A016A07908F
:1007300007920001AFEF03F0D58CD59AD58ED58600
:10074000000ED76E060ED66EF294F28A1200CA849C
:10075000CA92CA90FA0ECB6E9E929D82120077ECDE
:0A07600003F0B1EF03F007EF00F023
:020000040020DA
:08000000FFFFFFFFFFFFFFFF00
:020000040030CA
:0E000000FF071F1FFF8285FF0FC00FE00F409C
:00000001FF
