:020000040000FA
:04000000B3EF04F066
:100600000000BCEC04F08250000E116E000E106E63
:1006100082500F0B0F6E0E0E0F18D8A412EF03F0BE
:1006200014EF03F02BEF03F0000E056E000E066EC4
:10063000000E076E000E086E000E016E000E026EB8
:10064000000E036E000E046E816A000E116E010E24
:10065000106E8DEF03F00D0E0F18D8A432EF03F0DB
:1006600034EF03F04BEF03F0000E056E000E066E44
:10067000000E076E000E086E000E096E000E0A6E68
:10068000000E0B6E000E0C6E816A000E116E020ED3
:10069000106E8DEF03F00B0E0F18D8A452EF03F07D
:1006A00054EF03F06CEF03F0000E116E030E106EAA
:1006B000000E056E000E066E000E076E000E086E30
:1006C000000E096E000E0A6E000E0B6E000E0C6E10
:1006D000AA0E816E8DEF03F0070E0F18D8A473EFEA
:1006E00003F075EF03F08DEF03F0000E116E040EB2
:1006F000106E000E056E000E066E000E076E000EE8
:10070000086E000E096E000E0A6E000E0B6E000ED3
:100710000C6EF00E816E8DEF03F0010E0926000EB7
:100720000A220B220C22210E091809E14E0E0A188A
:100730000B100C10D8A49FEF03F0A1EF03F008EF0B
:1007400003F0000E096E000E0A6E000E0B6E000E16
:100750000C6E10041110D8A4B0EF03F0B2EF03F048
:10076000B6EF03F0E4EC03F008EF03F0020E10180C
:100770001110D8A4BEEF03F0C0EF03F0C4EF03F0F4
:100780006EEC04F008EF03F0030E10181110D8A45B
:10079000CCEF03F0CEEF03F0D2EF03F0C6EC04F0A1
:1007A00008EF03F0040E10181110D8A4DAEF03F0CC
:1007B000DCEF03F0E0EF03F0C4EC04F008EF03F02B
:1007C00008EF03F000EF00F008500710061007E1F3
:1007D000080E055CD8B0EFEF03F0F1EF03F008EF7F
:1007E00004F005C00DF0010E0E6E0D2AFAEF03F0B5
:1007F000D8900E360D2EF8EF03F00E508110816E5A
:10080000010E0526000E0622072208226DEF04F0D5
:1008100008500710061007E1100E055CD8B013EF62
:1008200004F015EF04F020EF04F081508124816E74
:10083000010E0526000E0622072208226DEF04F0A5
:1008400004500310021007E1080E015CD8B02BEF32
:1008500004F02DEF04F045EF04F0015007080D6E91
:10086000010E0E6E0D2A37EF04F0D8900E360D2EC5
:1008700035EF04F00E508110816E010E0126000E3E
:100880000222032204226DEF04F004500310021030
:1008900007E1100E015CD8B050EF04F052EF04F005
:1008A0005DEF04F0D8908130816E010E0126000EBC
:1008B0000222032204226DEF04F0000E016E000EEE
:1008C000026E000E036E000E046E000E056E000E2A
:1008D000066E000E076E000E086E1200085007101C
:1008E000061007E1080E055CD8B079EF04F07BEF45
:1008F00004F092EF04F005C00DF0010E0E6E0D2A0B
:1009000084EF04F0D8900E360D2E82EF04F00E50D6
:100910008110816E010E0526000E06220722082294
:10092000B2EF04F008500710061007E1100E055C46
:10093000D8B09DEF04F09FEF04F0AAEF04F08150CF
:100940008124816E010E0526000E06220722082250
:10095000B2EF04F0000E056E000E066E000E076E7C
:10096000000E086E120000EE01F00C0EEE6AE806B2
:10097000FDE1000101EF03F0936A0F0E826E9450C7
:100980000F0B946E816A1200811E1200811E1200EC
:020000040020DA
:08000000FFFFFFFFFFFFFFFF00
:020000040030CA
:0E000000FF071F1FFF8285FF0FC00FE00F409C
:00000001FF
