:020000040000FA
:040000003BEF00F0E2
:100008001082F2A40AEF00F00CEF00F039EF00F0D4
:10001800080ED624D66E000ED720D76E010E012604
:10002800000E022203220422A10E01180AE1860E04
:10003800021807E103040410D8A425EF00F027EF05
:1000480000F038EF00F0000E016E000E026E000E98
:10005800036E000E046ED59E0A0E096E000E0A6E1F
:10006800000E0B6E000E0C6EF2941092110086EFCB
:0200780003F093
:100600000000ACEC03F0B5EC03F0010E4CEC03F091
:100610000F6E0950055C0A5006580B5007580C50D5
:100620000858D8B016EF03F018EF03F01BEF03F0F3
:1006300081681CEF03F0816A010E0526000E062278
:1006400007220822650E0518061007100810D8A406
:100650002CEF03F02EEF03F036EF03F0000E056EE3
:10066000000E066E000E076E000E086E0E0E0F18BE
:10067000D8A43DEF03F03FEF03F005EF03F0D58E74
:10068000640E096E000E0A6E000E0B6E000E0C6EEC
:1006900005EF03F03BEF00F00E6E0E04D8A453EF0D
:1006A00003F055EF03F07AEF03F082500F0B0F0ABF
:1006B000D8B45DEF03F05FEF03F06CEF03F00D5083
:1006C000D8B465EF03F067EF03F06CEF03F00D6A49
:1006D00082500F0B85EF03F082500F0B0F0AD8A446
:1006E00074EF03F076EF03F084EF03F0010E0D6E6C
:1006F00084EF03F00E50D8A480EF03F082EF03F0F4
:1007000084EF03F068EF03F0FF0E1200720EF66E36
:10071000070EF76E000EF86E00EE09F010EE05F011
:100720000900F5CFEEFFE550E150FAE100EE01F0EF
:10073000080EEE6AE806FDE110901092000101EF4C
:1007400003F0D58CD59AD59ED586000ED76E060EB1
:10075000D66EF294F28A1200F28C816A936A0F0EBE
:10076000C16EA1EC03F0F28E120094500F09946E4A
:0707700012000A0000000165
:020000040020DA
:08000000FFFFFFFFFFFFFFFF00
:020000040030CA
:0E000000FF071F1FFF8285FF0FC00FE00F409C
:00000001FF
