:020000040000FA
:04000000F1EF03F029
:1006000000001BEC04F0000E1B6E000E1C6E000EB2
:100610001D6E000E1E6E010E1B26000E1C221D22DA
:100620001E22650E1B181C101D101E10D8A41BEFD7
:1006300003F01DEF03F035EF03F0000E1B6E000E0C
:100640001C6E000E1D6E000E1E6E1F4A202A0C0E20
:100650001F182010D8A42FEF03F031EF03F035EF6F
:1006600003F0000E206E000E1F6E1FC013F020C09E
:1006700014F0000E166E0C0E156EBFEC03F0135046
:10068000010FD96EDA6ADF50216E010E1F24136E3E
:10069000000E2020146E000E166E0C0E156EBFECB0
:1006A00003F01350010FD96EDA6ADF50226E020E8A
:1006B0001F24136E000E2020146E000E166E0C0EFA
:1006C000156EBFEC03F01350010FD96EDA6ADF50DC
:1006D000236E030E1F24136E000E2020146E000ED6
:1006E000166E0C0E156EBFEC03F01350010FD96E91
:1006F000DA6ADF50246E210E136E83EC03F00BEFE9
:1007000003F000EF00F01A6A13501A24D96EDA6A67
:10071000DF50836E1AC014F0010E156E142A93EF89
:1007200003F0D8901536142E91EF03F08050F00BA3
:100730001510806EE80E166E030E176E000E186E02
:10074000000E196E1606000E175A185A195A162856
:100750000AE1172808E1182806E11928D8A4B3EF00
:1007600003F0B5EF03F0A2EF03F01A2A040E1A64A7
:10077000BCEF03F0BEEF03F084EF03F0120015505E
:100780001610D8B4C6EF03F0C8EF03F0ECEF03F097
:10079000010E176ED0EF03F0D89015361636172AD3
:1007A00016AED5EF03F0D7EF03F0CCEF03F0155002
:1007B000135C16501458D8A0E0EF03F0E2EF03F0FA
:1007C000E6EF03F01550135E1650145AD890163207
:1007D0001532172ED7EF03F013C013F014C014F026
:1007E0001200140EF66E080EF76E000EF86E00EE94
:1007F00001F010EE12F00900F5CFEEFFE550E150E8
:10080000FAE1246A236A226A216A206A1F6A0001C7
:1008100001EF03F0E721CB6B2D6EEE23EF6F40402D
:10082000030002000100956A9250F00B926E805016
:0C083000F00B806E120013EC04F01200BC
:020000040020DA
:08000000FFFFFFFFFFFFFFFF00
:020000040030CA
:0E000000FF071F1FFF8285FF0FC00FE00F409C
:00000001FF
