:020000040000FA
:0400000037EF03F0E3
:1006000000003AEC03F0000E016E000E026E000EC8
:10061000036E000E046E010E0126000E022203225C
:100620000422510E011809E1C30E02180310041030
:10063000D8A41DEF03F01FEF03F023EF03F0010E2A
:10064000816E0BEF03F0A00E01180AE1860E02186E
:1006500007E103040410D8A430EF03F032EF03F0F5
:100660000BEF03F0816A03EF03F000EF00F00001ED
:0806700001EF03F0936A120090
:020000040020DA
:08000000FFFFFFFFFFFFFFFF00
:020000040030CA
:0E000000FF071F1FFF8285FF0FC00FE00F409C
:00000001FF
