:020000040000FA
:0400000007EF00F016
:0A000800038201ED03F041EF03F065
:10060000000006009EA007EF03F009EF03F029EFBA
:1006100003F0DC0ECE24CE6E0B0ECF20CF6E014A3F
:10062000022A790E01180210D8A419EF03F01BEF6B
:1006300003F028EF03F0000E026E000E016E81A0A1
:1006400024EF03F027EF03F0818028EF03F081907F
:100650009E9003921100CD80CD9ECD92CD960B0E33
:10066000CF6EDC0ECE6ECD9ACD989E909D801200FE
:10067000F28C816A936A0F0EC16E2BEC03F0F28E3E
:100680001200026A016A03900392000148EF03F02E
:0C06900038EC03F04AEF03F007EF00F035
:020000040020DA
:08000000FFFFFFFFFFFFFFFF00
:020000040030CA
:0E000000FF071F1FFF8285FF0FC00FE00F409C
:00000001FF
