:020000040000FA
:04000000CFEF16F038
:062D8600A4EC17F012009E
:102D8D00303132333435363738395F5F5F5F5F5FEF
:102D9D00008D0EF66E2D0EF76E000EF86E00EE1B0A
:102DAD00F010EE11F00900F5CFEEFFE550E150FA0D
:102DBD00E1000EF86E00015EEF17F0026E01B0EA51
:102DCD00EF16F0EDEF16F08282EEEF16F082920222
:102DDD00C083FF82848294958E82808292828482C7
:102DED009483BEFCEF16F0FEEF16F0F5EF16F082B1
:102DFD0090959E12000150D96EDA6A0F0ED926DF1A
:102E0D0050026E000E046E0F0E036E01500324D996
:102E1D006EDA6AFF0ED92601500324E16EE26ADFF5
:102E2D00CFE7FF0306D8A0040604BE22EF17F0205B
:102E3D00EF17F00CEF17F00150D96EDA6A02C0DF10
:102E4D00FF1200000E016E0550E4EC16F045EF1771
:102E5D00F0010E016E03C0F6FF04C0F7FFF86A051E
:102E6D000EF76403D00800F55005D0F6CFE9FFF753
:102E7D00CFEAFFEF50E4EC16F0034A042A03C0F644
:102E8D00FF04C0F7FFF86A050EF76403D00800F5DC
:102E9D005005D0F6CFE9FFF7CFEAFFEF500009D884
:102EAD00A45BEF17F05DEF17F02FEF17F01200C3D3
:102EBD00EC16F0EF0E036E2F0E046E800E056E28CD
:102ECD00EC17F020EE1BF010EE06F0100EDBCFE34A
:102EDD00FFE806FCE2000E176E000E186E000E19CC
:102EED006E000E1A6E010E1726000E182219221AE8
:102EFD0022E90E171809E1030E181819101A10D827
:102F0D00A48BEF17F08DEF17F099EF17F0000E1758
:102F1D006E000E186E000E196E000E1A6E060E0162
:102F2D006E01EC17F0060E036E046AC00E056E28D6
:102F3D00EC17F079EF17F000EF00F0956A9450F868
:102F4D000B946E8290C30E036ECD0EE82EFED7034A
:102F5D002EFCD70000000E016E330EE4EC16F01BB4
:102F6D000E036E9E0EE82EFED7032EFCD700D0006A
:102F7D000E016E330EE4EC16F0A60EE82EFED70011
:102F8D00D0000E016E330EE4EC16F000D000D00030
:102F9D0000000E016E020EE4EC16F0A60EE82EFEF9
:102FAD00D700D0000E016E380EE4EC16F0A60EE838
:102FBD002EFED700D0000E016E010EE4EC16F004CB
:102FCD000E036E3E0EE82EFED7032EFCD7000E012B
:102FDD006E0C0EE4EC16F0A60EE82EFED700D01205
:102FED0000005269676874207363726F6C6C696E50
:032FFD006700006A
:020000040020DA
:08000000FFFFFFFFFFFFFFFF00
:020000040030CA
:0E000000FF071F1FFF8285FF0FC00FE00F409C
:00000001FF
