:020000040000FA
:0400000007EF00F016
:0A00080013824BED03F089EF03F0C3
:100600000000AFEC03F0C30E026E500E016E010647
:10061000D8A00206012806E10228D8A412EF03F0B0
:1006200014EF03F007EF03F0C30E046E500E036ED9
:100630000306D8A00406032806E10428D8A423EF63
:1006400003F025EF03F018EF03F0C30E066E500E13
:10065000056E0506D8A00606052806E10628D8A4DA
:1006600034EF03F036EF03F029EF03F0C30E086E0A
:10067000500E076E0706D8A00806072806E10828CE
:10068000D8A445EF03F047EF03F03AEF03F003EF90
:1006900003F007EF00F00600F2A451EF03F053EF70
:1006A00003F087EF03F0080ED624D66E000ED72095
:1006B000D76E0F50095C10500A5811500B58125049
:1006C0000C58D8B066EF03F068EF03F06BEF03F05F
:1006D00081806CEF03F08190010E0926000E0A2242
:1006E0000B220C22650E09180A100B100C10D8A44E
:1006F0007CEF03F07EEF03F086EF03F0000E096E4F
:10070000000E0A6E000E0B6E000E0C6EF294139229
:100710001100720EF66E070EF76E000EF86E00EE08
:100720000FF010EE04F00900F5CFEEFFE550E150B8
:10073000FAE10E6A0D6A0C6A0B6A0A6A096A13907A
:100740001392000101EF03F0D58CD59AD58ED58692
:10075000000ED76E060ED66EF294F28A1200F28C5C
:10076000816A936A0F0EC16EA4EC03F08182F28E4F
:060770001200140000005D
:020000040020DA
:08000000FFFFFFFFFFFFFFFF00
:020000040030CA
:0E000000FF071F1FFF8285FF0FC00FE00F409C
:00000001FF
