:020000040000FA
:04000000B4EF14F055
:10292A009FEC14F0CAEC14F012003130313031301F
:10293A00313000010F0EC16E1E0E936EF19E815052
:10294A00E009816E1200046E000E016E0350E4EC81
:10295A0014F0010E016E0450E4EC14F01200340E6F
:10296A00F66E290EF76E000EF86E00EE37F010EED6
:10297A000AF00900F5CFEEFFE550E150FAE1416AAD
:10298A00000EF86E0001F5EF15F0956A9450F80BF9
:10299A00946E8290000E016E020EE4EC14F0000EAA
:1029AA00016E380EE4EC14F0000E016E0C0EE4EC2D
:1029BA0014F0000E016E010EE4EC14F01200026E27
:1029CA0001B0EAEF14F0EDEF14F08282EEEF14F0AA
:1029DA00829202C083FF82848294958E8280829240
:1029EA008284829483BEFCEF14F0FEEF14F0F5EFBC
:1029FA0014F08290959E1200000E016E0550E4ECD0
:102A0A0014F01EEF15F0010E016E03C0F6FF04C0AC
:102A1A00F7FFF86A050EF76403D00800F55005D0F1
:102A2A00F6CFE9FFF7CFEAFFEF50E4EC14F0034AE0
:102A3A00042A03C0F6FF04C0F7FFF86A050EF7641C
:102A4A0003D00800F55005D0F6CFE9FFF7CFEAFF2B
:102A5A00EF500009D8A434EF15F036EF15F008EF5F
:102A6A0015F01200016E0104D8A43EEF15F040EFF4
:102A7A0015F063EF15F071EC15F0416E4128D8B4EA
:102A8A0049EF15F04BEF15F057EF15F04050D8B459
:102A9A0051EF15F053EF15F057EF15F0406A41501A
:102AAA0070EF15F04128D8A45DEF15F05FEF15F02F
:102ABA006FEF15F0010E406E6FEF15F00150D8A4BC
:102ACA0069EF15F06BEF15F06FEF15F071EC15F07B
:102ADA0070EF15F0FF0E1200819A818C818E81B2FF
:102AEA0079EF15F07BEF15F07EEF15F0010EF4EF9C
:102AFA0015F081B483EF15F085EF15F088EF15F026
:102B0A00040EF4EF15F081B68DEF15F08FEF15F086
:102B1A0092EF15F0070EF4EF15F081B897EF15F064
:102B2A0099EF15F09CEF15F00A0EF4EF15F0818A73
:102B3A00819C818E81B2A4EF15F0A6EF15F0A9EF62
:102B4A0015F0020EF4EF15F081B4AEEF15F0B0EF08
:102B5A0015F0B3EF15F0050EF4EF15F081B6B8EFE6
:102B6A0015F0BAEF15F0BDEF15F0080EF4EF15F0F9
:102B7A0081B8C2EF15F0C4EF15F0C7EF15F00B0ED0
:102B8A00F4EF15F0818A818C819E819E81B2D0EF0B
:102B9A0015F0D2EF15F0D5EF15F0030EF4EF15F09E
:102BAA0081B4DAEF15F0DCEF15F0DFEF15F0060E61
:102BBA00F4EF15F081B6E4EF15F0E6EF15F0E9EF62
:102BCA0015F0090EF4EF15F081B8EEEF15F0F0EFFD
:102BDA0015F0F3EF15F00C0EF4EF15F0FF0E1200DE
:102BEA0095EC14F0000E366E000E356E20EE37F0BE
:102BFA0010EE10F0080EDBCFE3FFE806FCE2000E51
:102C0A00346E050E336E000E266E000E276E000E11
:102C1A00286E000E296E000E2C6E000E2D6E000E10
:102C2A002E6E000E2F6E8190345007E1050E335C34
:102C3A00D8B022EF16F024EF16F071EF16F03350E9
:102C4A003410D8B42BEF16F02DEF16F071EF16F002
:102C5A00010E2626000E272228222922C80E330218
:102C6A00F3CF06F0F4CF07F03402F35007260650EC
:102C7A00086E0750096E0A6A0B6A010E08240C6E68
:102C8A00000E09200D6E000E0A200E6E000E0B209B
:102C9A000F6E26500C180DE127500D180AE1285026
:102CAA000E1807E129500F18D8A45EEF16F060EF4E
:102CBA0016F071EF16F0000E266E000E276E000E4B
:102CCA00286E000E296E81A06DEF16F070EF16F0D7
:102CDA00818071EF16F08190010E37EC15F0306E9D
:102CEA00B20E036E2F0E046E800E056E01EC15F007
:102CFA00010E2C26000E2D222E222F22910E2C1888
:102D0A0008E12D042E102F10D8A48EEF16F090EFA4
:102D1A0016F098EF16F03550C00F036E5F0EA8EC50
:102D2A0014F0BAEF16F0010E2C26000E2D222E22D8
:102D3A002F22210E2C1809E1030E2D182E102F1008
:102D4A00D8A4AAEF16F0ACEF16F0BAEF16F0000E00
:102D5A002C6E000E2D6E000E2E6E000E2F6E35504C
:102D6A00C00F036E200EA8EC14F0365007E1080ECF
:102D7A00355CD8B0C3EF16F0C5EF16F0F4EF16F0D5
:102D8A003004D8A4CBEF16F0CDEF16F0DBEF16F037
:102D9A003550C00F036E2A0EA8EC14F03550190FE7
:102DAA00D96EDA6A310EDF6E354A362A020E3018CB
:102DBA00D8A4E2EF16F0E4EF16F019EF16F035504A
:102DCA00C00F036E2A0EA8EC14F03550190FD96EF5
:102DDA00DA6A300EDF6E354A362A19EF16F0080E17
:102DEA0035183610D8A4FCEF16F0FEEF16F019EFDE
:102DFA0016F0000E266E000E276E000E286E000ECC
:102E0A00296E000E2B6E000E2A6E000E016E010E48
:102E1A00E4EC14F0100E036E046A800E056E01ECE9
:102E2A0015F0190E036E046AC00E056E01EC15F05A
:102E3A00186A216A000E326E000E316E3150190F77
:102E4A00D96EDA6A3150100FE16EE26ADE50E61886
:102E5A00D8B432EF17F034EF17F03DEF17F0000E49
:102E6A002B6E010E2A6E3306D8A034064DEF17F0EA
:102E7A00314A322A32BE4BEF17F0325009E1080EBE
:102E8A00315CD8A04BEF17F04DEF17F023EF17F096
:102E9A002A502B10D8A454EF17F056EF17F06DEF05
:102EAA0017F0000E016E010EE4EC14F0EF0E036E43
:102EBA002F0E046E800E056E01EC15F0E40E036E03
:102ECA002F0E046EC00E056E01EC15F06BEF17F0B5
:102EDA0033503410D8B474EF17F076EF17F0B7EF19
:102EEA0017F0000E016E010EE4EC14F0A10E036E51
:102EFA002F0E046E800E056E01EC15F0D40E036ED3
:102F0A002F0E046EC00E056E01EC15F0CE0E036E88
:102F1A003350300FA8EC14F0200E226EA10E236E4F
:102F2A00070E246E000E256E2206000E235A245A1E
:102F3A00255A22280AE1232808E1242806E125281F
:102F4A00D8A4AAEF17F0ACEF17F099EF17F0000E1C
:102F5A00016E010EE4EC14F0000E366E000E356EB2
:102F6A0019EF16F0000E016E010EE4EC14F0C30E18
:102F7A00036E2F0E046E800E056E01EC15F0F90E2D
:102F8A00036E2F0E046EC50E056E01EC15F0CCEF24
:102F9A0017F000EF00F0002057524F4E47205041E3
:102FAA005353574F5244200020454E544552205007
:102FBA00415353574F52442000417474656D7074E5
:102FCA0020617265206F76657200417474656D7058
:102FDA007473206C6566743A200020594F47455334
:102FEA0048204B2000205355434345535320005259
:062FFA00455345540000A0
:020000040020DA
:08000000FFFFFFFFFFFFFFFF00
:020000040030CA
:0E000000FF071F1FFF8285FF0FC00FE00F409C
:00000001FF
