:020000040000FA
:0400000007EF00F016
:0A00080014826BED03F0D4EF03F057
:100600000000000E066E000E056E03500410D8B4F4
:100610000CEF03F00EEF03F036EF03F0010E076E60
:1006200016EF03F0D89003360436072A04AE1BEF0A
:1006300003F01DEF03F012EF03F0D89005360636F5
:100640000350015C04500258D8A029EF03F02BEFAF
:1006500003F030EF03F00350015E0450025A0580AE
:10066000D89004320332072E1DEF03F005C001F0CD
:1006700006C002F01200DFEC03F0040E96EC03F06B
:1006800001C008F002C009F008C001F009C002F082
:10069000000E046E0A0E036E01EC03F001C010F0B0
:1006A00002C011F0126A136A10500A5C11500B5804
:1006B00012500C5813500D58D8B061EF03F063EF8F
:1006C00003F066EF03F081683DEF03F0816A3DEFD0
:1006D00003F007EF00F00600F2A471EF03F073EFF0
:1006E00003F094EF03F0080ED624D66E000ED72048
:1006F000D76E010E0A26000E0B220C220D22650E6B
:100700000A180B100C100D10D8A489EF03F08BEF12
:1007100003F093EF03F0000E0A6E000E0B6E000E56
:100720000C6E000E0D6EF29414921100076E07C04D
:1007300003F0D8900336D8900336C250C30B031091
:10074000C26EC282C2B2A7EF03F0A9EF03F0A2EF1C
:1007500003F0C350C4CF03F0046A03C004F0036A7B
:100760000310056E0450066E05C001F006C002F0CD
:100770001200C08EC09AC088C096C090C082C0943B
:10078000C292C19AC198C46AC36AC2801200F28E32
:10079000F28CD58CD59AD58ED586000ED76E060EE6
:1007A000D66EF294F28A12000F6A0E6A0D6A0C6A13
:1007B0000B6A0A6A1490149200013BEF03F0816AFD
:0C07C000936AB9EC03F0C7EC03F01200E0
:020000040020DA
:08000000FFFFFFFFFFFFFFFF00
:020000040030CA
:0E000000FF071F1FFF8285FF0FC00FE00F409C
:00000001FF
