:020000040000FA
:04000000A4EF03F076
:1006000000009DEC03F0010E016E010E026E010E62
:10061000036E010E046E82B010EF03F012EF03F0D0
:1006200026EF03F00150D8B418EF03F01AEF03F0EF
:1006300026EF03F0016A81A020EF03F023EF03F01F
:10064000818024EF03F081902FEF03F082A02BEF45
:1006500003F02DEF03F02FEF03F0010E016E82B2D5
:1006600034EF03F036EF03F04AEF03F00250D8B452
:100670003CEF03F03EEF03F04AEF03F0026A81A281
:1006800044EF03F047EF03F0818248EF03F08192DB
:1006900053EF03F082A24FEF03F051EF03F053EF5B
:1006A00003F0010E026E82B458EF03F05AEF03F02C
:1006B0006EEF03F00350D8B460EF03F062EF03F085
:1006C0006EEF03F0036A81A468EF03F06BEF03F0B1
:1006D00081846CEF03F0819477EF03F082A473EFD1
:1006E00003F075EF03F077EF03F0010E036E82B6AF
:1006F0007CEF03F07EEF03F092EF03F00450D8B4E8
:1007000084EF03F086EF03F092EF03F0046A81A612
:100710008CEF03F08FEF03F0818690EF03F081966A
:100720000BEF03F082A697EF03F099EF03F00BEFC6
:1007300003F009EF03F000EF00F09450F00B0F0905
:0E074000946E936A816A1200000101EF03F0CB
:020000040020DA
:08000000FFFFFFFFFFFFFFFF00
:020000040030CA
:0E000000FF071F1FFF8285FF0FC00FE00F409C
:00000001FF
