:020000040000FA
:0400000047EF04F0D2
:10060000000060EC04F011C008F012C009F0000E08
:100610000B6E0A0E0A6E15EC04F00850170FD96E17
:10062000DA6ADF50166E000E046E0A0E036E11C0F9
:1006300001F012C002F0DBEC03F001C008F002C0D0
:1006400009F0000E0B6E0A0E0A6E15EC04F008504D
:10065000170FD96EDA6ADF50156E000E046E640E45
:10066000036E11C001F012C002F0DBEC03F001C018
:1006700008F002C009F0000E0B6E0A0E0A6E15ECAF
:1006800004F00850170FD96EDA6ADF50146E030EAB
:10069000046EE80E036E11C001F012C002F0DBEC34
:1006A00003F001C008F002C009F0000E0B6E0A0E44
:1006B0000A6E15EC04F00850170FD96EDA6ADF5095
:1006C000136E82B066EF03F068EF03F07BEF03F088
:1006D0000D4A0E2A0E5009E1970E0D5CD8A073EF5B
:1006E00003F075EF03F097EF03F0000E126E000EAB
:1006F000116E97EF03F00E5009E1020E0D5CD8A0C9
:1007000084EF03F086EF03F093EF03F00E5007E160
:10071000320E0D5CD8B08FEF03F091EF03F093EF42
:1007200003F0114A122A000E0E6E000E0D6E130E0B
:10073000016E9FEC03F003EF03F000EF00F0086A96
:1007400001500824D96EDA6ADF50836E08C002F0C7
:10075000010E036E022AAFEF03F0D8900336022E8B
:10076000ADEF03F08050F00B0310806EE80E046EC6
:10077000030E056E000E066E000E076E0406000ED8
:10078000055A065A075A04280AE1052808E10628EE
:1007900006E10728D8A4CFEF03F0D1EF03F0BEEFB6
:1007A00003F0082A040E0864D8EF03F0DAEF03F030
:1007B000A0EF03F01200000E066E000E056E03504F
:1007C0000410D8B4E6EF03F0E8EF03F010EF04F004
:1007D000010E076EF0EF03F0D89003360436072AB7
:1007E00004AEF5EF03F0F7EF03F0ECEF03F0D89071
:1007F000053606360350015C04500258D8A003EFBA
:1008000004F005EF04F00AEF04F00350015E045019
:10081000025A0580D89004320332072EF7EF03F016
:1008200005C001F006C002F012000A500B10D8B447
:100830001CEF04F01EEF04F042EF04F0010E0C6E0A
:1008400026EF04F0D8900A360B360C2A0BAE2BEFAD
:1008500004F02DEF04F022EF04F00A50085C0B5076
:100860000958D8A036EF04F038EF04F03CEF04F05C
:100870000A50085E0B50095AD8900B320A320C2EDF
:100880002DEF04F008C008F009C009F01200D60EE0
:10089000F66E080EF76E000EF86E00EE17F010EE12
:1008A0000AF00900F5CFEEFFE550E150FAE100EE65
:1008B0000DF00A0EEE6AE806FDE1000101EF03F01B
:1008C000956A9250F00B926E8050F00B806E9450AF
:1008D000010B946E1200E721CB6B2D6EEE23EF6FB0
:020000040020DA
:08000000FFFFFFFFFFFFFFFF00
:020000040030CA
:0E000000FF071F1FFF8285FF0FC00FE00F409C
:00000001FF
