:020000040000FA
:0400000023EF04F0F6
:1006000000003CEC04F011C008F012C009F0000E2C
:100610000B6E0A0E0A6EF1EC03F00850170FD96E3C
:10062000DA6ADF50166E000E046E0A0E036E11C0F9
:1006300001F012C002F085EC03F001C008F002C026
:1006400009F0000E0B6E0A0E0A6EF1EC03F0085072
:10065000170FD96EDA6ADF50156E000E046E640E45
:10066000036E11C001F012C002F085EC03F001C06E
:1006700008F002C009F0000E0B6E0A0E0A6EF1ECD3
:1006800003F00850170FD96EDA6ADF50146E030EAC
:10069000046EE80E036E11C001F012C002F085EC8A
:1006A00003F001C008F002C009F0000E0B6E0A0E44
:1006B0000A6EF1EC03F00850170FD96EDA6ADF50BA
:1006C000136E0E5009E1020E0D5CD8A06AEF03F024
:1006D0006CEF03F079EF03F00E5007E1320E0D5C82
:1006E000D8B075EF03F077EF03F079EF03F0114A1C
:1006F000122A000E0E6E000E0D6E130E016EBFEC70
:1007000003F003EF03F000EF00F0000E066E000EA2
:10071000056E03500410D8B490EF03F092EF03F08D
:10072000BAEF03F0010E076E9AEF03F0D89003368C
:100730000436072A04AE9FEF03F0A1EF03F096EF13
:1007400003F0D890053606360350015C0450025879
:10075000D8A0ADEF03F0AFEF03F0B4EF03F0035018
:10076000015E0450025A0580D89004320332072EED
:10077000A1EF03F005C001F006C002F01200066A06
:1007800001500624D96EDA6ADF50836E06C002F08B
:10079000010E036E022ACFEF03F0D8900336022E2B
:1007A000CDEF03F08050F00B0310806E030E056E4A
:1007B000E80E046E0406D8A00506042806E1052804
:1007C000D8A4E5EF03F0E7EF03F0DAEF03F0062A31
:1007D000030E0664EEEF03F0F0EF03F0C0EF03F05A
:1007E00012000A500B10D8B4F8EF03F0FAEF03F040
:1007F0001EEF04F0010E0C6E02EF04F0D8900A36E2
:100800000B360C2A0BAE07EF04F009EF04F0FEEFF5
:1008100003F00A50085C0B500958D8A012EF04F0FE
:1008200014EF04F018EF04F00A50085E0B50095A58
:10083000D8900B320A320C2E09EF04F008C008F0F1
:1008400009C009F01200880EF66E080EF76E000E51
:10085000F86E00EE17F010EE0AF00900F5CFEEFF8B
:10086000E550E150FAE100EE0DF00A0EEE6AE806FE
:10087000FDE1000101EF03F0956A9250F00B926EDA
:100880008050F00B806E1200E721CB6B2D6EEE23B3
:02089000EF6F08
:020000040020DA
:08000000FFFFFFFFFFFFFFFF00
:020000040030CA
:0E000000FF071F1FFF8285FF0FC00FE00F409C
:00000001FF
