:020000040000FA
:0400000085EF03F095
:1006000000009AEC03F0816A000E0C6E000E0B6E77
:10061000A00E036E860E046E010E056E000E066EB1
:100620000306000E045A055A065A03280AE1042854
:1006300008E1052806E10628D8A421EF03F023EFFE
:1006400003F010EF03F00BC001F0010E026E012A5F
:100650002CEF03F0D8900236012E2AEF03F002505F
:100660008110816E0B4A0C2A0CBE40EF03F00C5037
:1006700009E1080E0B5CD8A040EF03F042EF03F055
:1006800008EF03F0000E0E6E000E0D6EA00E076E4A
:10069000860E086E010E096E000E0A6E0706000E29
:1006A000085A095A0A5A07280AE1082808E10928BD
:1006B00006E10A28D8A45FEF03F061EF03F04EEFE4
:1006C00003F00DC001F0010E026E012A6AEF03F083
:1006D000D8900236012E68EF03F00250FF0A811411
:1006E000816E0D4A0E2A0EBE7FEF03F00E5009E117
:1006F000080E0D5CD8A07FEF03F081EF03F046EF0A
:1007000003F004EF03F000EF00F0300EF66E070E7A
:10071000F76E000EF86E00EE0FF010EE04F0090018
:10072000F5CFEEFFE550E150FAE1000101EF03F0F3
:08073000930F810F936A120080
:020000040020DA
:08000000FFFFFFFFFFFFFFFF00
:020000040030CA
:0E000000FF071F1FFF8285FF0FC00FE00F409C
:00000001FF
