:020000040000FA
:0400000095EF04F084
:100600000000D6EC04F0000E0F6E000E0E6E000E11
:10061000C5EC04F00D6E0D50216E226A000EBDEC8B
:1006200003F0106E0D0E1018D8A419EF03F01BEF95
:1006300003F020EF03F021C001F0000EADEC04F058
:100640000E0E1018D8A427EF03F029EF03F03EEFA9
:1006500003F01C2AC90E1C18D8A431EF03F033EFA5
:1006600003F061EF03F0000E226E000E216E000E0B
:100670000F6E010E0E6E1C6A61EF03F01C50D8B4B1
:1006800044EF03F046EF03F061EF03F0C80E1C6087
:100690004CEF03F04EEF03F061EF03F00E500F103C
:1006A000D8A455EF03F057EF03F05BEF03F0214AB6
:1006B000222A3BEF03F0000E0F6E000E0E6E3BEF92
:1006C00003F021C001F022C002F0000E046E0A0EF9
:1006D000036E63EC04F00150110FD96EDA6ADF503B
:1006E000206E000E046E640E036E21C001F022C065
:1006F00002F063EC04F001C006F002C007F0000E47
:10070000096E0A0E086EF7EC03F00650110FD96E51
:10071000DA6ADF501F6E030E046EE80E036E21C00E
:1007200001F022C002F063EC04F001C006F002C048
:1007300007F0000E096E640E086EF7EC03F0065029
:10074000110FD96EDA6ADF501E6E21C006F022C08A
:1007500007F0030E096EE80E086EF7EC03F0065082
:10076000110FD96EDA6ADF501D6E1D0E016E31EC6D
:1007700004F00EEF03F000EF00F0016E0104D8A4C6
:10078000C4EF03F0C6EF03F0EBEF03F082500F0B62
:100790000F0AD8B4CEEF03F0D0EF03F0DDEF03F093
:1007A0001B50D8B4D6EF03F0D8EF03F0DDEF03F021
:1007B0001B6A82500F0BF6EF03F082500F0B0F0AEB
:1007C000D8A4E5EF03F0E7EF03F0F5EF03F0010E37
:1007D0001B6EF5EF03F00150D8A4F1EF03F0F3EF37
:1007E00003F0F5EF03F0D9EF03F00F0E1200000E47
:1007F0000B6E000E0A6E08500910D8B402EF04F018
:1008000004EF04F02CEF04F0010E0C6E0CEF04F07A
:10081000D890083609360C2A09AE11EF04F013EF10
:1008200004F008EF04F0D8900A360B360850065C46
:1008300009500758D8A01FEF04F021EF04F026EF6D
:1008400004F00850065E0950075A0A80D890093211
:1008500008320C2E13EF04F00AC006F00BC007F0AC
:100860001200066A01500624D96EDA6ADF50836EE0
:1008700006C002F0010E036E022A41EF04F0D89088
:100880000336022E3FEF04F08050F00B0310806E11
:10089000030E056EE80E046E0406D8A005060428B3
:1008A00006E10528D8A457EF04F059EF04F04CEF07
:1008B00004F0062A030E066460EF04F062EF04F011
:1008C00032EF04F0120003500410D8B46AEF04F0C1
:1008D0006CEF04F090EF04F0010E056E74EF04F07D
:1008E000D89003360436052A04AE79EF04F07BEF86
:1008F00004F070EF04F00350015C04500258D8A0DB
:1009000084EF04F086EF04F08AEF04F00350015EF8
:100910000450025AD89004320332052E7BEF04F0C3
:1009200001C001F002C002F01200BA0EF66E090E0C
:10093000F76E000EF86E00EE11F010EE0BF00900ED
:10094000F5CFEEFFE550E150FAE1206A1F6A1E6A1A
:100950001D6A1C6A000101EF03F0026E02C0A9FFCC
:1009600001C0A8FFA69EA69CA684F29E550EA76E67
:10097000AA0EA76EA682F28EA1A8C1EF04F0C3EF63
:1009800004F0BCEF04F0A1981200016E01C0A9FFB1
:10099000A694A69EA69CA680A8501200956A925086
:1009A000F00B926E8050F00B806E12000F0EC16E35
:1009B000E3EC04F0CEEC04F01200E721CB6B2D6EDB
:0509C000EE23EF6F01C2
:0809C60094500F09946E120019
:020000040020DA
:08000000FFFFFFFFFFFFFFFF00
:020000040030CA
:0E000000FF071F1FFF8285FF0FC00FE00F409C
:00000001FF
