:020000040000FA
:0400000007EF00F016
:0A000800348252ED07F07BEF07F0A1
:10060000000096EC07F0000E246E000E256E000E22
:10061000266E000E276E010EE6EC06F0336E070E16
:100620003318D8A416EF03F018EF03F036EF03F0F9
:1006300011501210D8B41FEF03F022EF03F0010E97
:1006400023EF03F0000E116E126AD5AE2AEF03F00D
:100650002DEF03F0D58E2EEF03F0D59E000E096E20
:10066000000E0A6E000E0B6E000E0C6E11041210BE
:10067000D8A43DEF03F03FEF03F06BEF04F048EC3C
:1006800005F00F501010D8A448EF03F04AEF03F024
:10069000D6EF03F0010E2426000E25222622272263
:1006A000650E2418251026102710D8A45AEF03F041
:1006B0005CEF03F08EEF03F001C017F002C018F0FA
:1006C00003C019F004C01AF00A0E1B6E000E1C6E57
:1006D000000E1D6E000E1E6E07EC06F01750280F60
:1006E000D96EDA6ADF50136E01C017F002C018F03D
:1006F00003C019F004C01AF00A0E1B6E000E1C6E27
:10070000000E1D6E000E1E6EA2EC06F01750280F94
:10071000D96EDA6ADF50146EA4EF03F0C80E241805
:10072000251026102710D8A498EF03F09AEF03F0B5
:10073000A4EF03F0000E246E000E256E000E266E50
:10074000000E276E136A146A05C017F006C018F071
:1007500007C019F008C01AF00A0E1B6E000E1C6EBE
:10076000000E1D6E000E1E6E07EC06F01750280FCF
:10077000D96EDA6ADF50156E05C017F006C018F0A2
:1007800007C019F008C01AF00A0E1B6E000E1C6E8E
:10079000000E1D6E000E1E6EA2EC06F01750280F04
:1007A000D96EDA6ADF50166E40EF05F00F041010B4
:1007B000D8A4DDEF03F0DFEF03F040EF05F0010E0A
:1007C0002426000E252226222722650E2418251015
:1007D00026102710D8A4EFEF03F0F1EF03F023EF7A
:1007E00004F005C017F006C018F007C019F008C0E3
:1007F0001AF00A0E1B6E000E1C6E000E1D6E000E0F
:100800001E6E07EC06F01750280FD96EDA6ADF501B
:10081000156E05C017F006C018F007C019F008C023
:100820001AF00A0E1B6E000E1C6E000E1D6E000EDE
:100830001E6EA2EC06F01750280FD96EDA6ADF5050
:10084000166E39EF04F0C80E241825102610271054
:10085000D8A42DEF04F02FEF04F039EF04F0000ED0
:10086000246E000E256E000E266E000E276E156A91
:10087000166A01C017F002C018F003C019F004C0D6
:100880001AF00A0E1B6E000E1C6E000E1D6E000E7E
:100890001E6E07EC06F01750280FD96EDA6ADF508B
:1008A000136E01C017F002C018F003C019F004C0A5
:1008B0001AF00A0E1B6E000E1C6E000E1D6E000E4E
:1008C0001E6EA2EC06F01750280FD96EDA6ADF50C0
:1008D000146E40EF05F011501210D8A472EF04F01E
:1008E00074EF04F040EF05F059EC06F009B07BEF2F
:1008F00004F07DEF04F0E0EF04F001C017F002C057
:1009000018F003C019F004C01AF00A0E1B6E000E96
:100910001C6E000E1D6E000E1E6E07EC06F01750CA
:10092000280FD96EDA6ADF50136E01C017F002C0CB
:1009300018F003C019F004C01AF00A0E1B6E000E66
:100940001C6E000E1D6E000E1E6EA2EC06F01750FF
:10095000280FD96EDA6ADF501009146E05C017F03F
:1009600006C018F007C019F008C01AF00A0E1B6E76
:10097000000E1C6E000E1D6E000E1E6E07EC06F0C3
:100980001750280FD96EDA6ADF50156E05C017F0C0
:1009900006C018F007C019F008C01AF00A0E1B6E46
:1009A000000E1C6E000E1D6E000E1E6EA2EC06F0F8
:1009B0001750280FD96EDA6ADF50166E40EF05F037
:1009C00001C017F002C018F003C019F004C01AF0FB
:1009D0000A0E1B6E000E1C6E000E1D6E000E1E6EAB
:1009E00007EC06F01750280FD96EDA6ADF50136E45
:1009F00001C017F002C018F003C019F004C01AF0CB
:100A00000A0E1B6E000E1C6E000E1D6E000E1E6E7A
:100A1000A2EC06F01750280FD96EDA6ADF50146E78
:100A200005C017F006C018F007C019F008C01AF08A
:100A30000A0E1B6E000E1C6E000E1D6E000E1E6E4A
:100A400007EC06F01750280FD96EDA6ADF50156EE2
:100A500005C017F006C018F007C019F008C01AF05A
:100A60000A0E1B6E000E1C6E000E1D6E000E1E6E1A
:100A7000A2EC06F01750280FD96EDA6ADF50166E16
:100A8000130E176E20EC07F00BEF03F007EF00F0EA
:100A90000B0E3318D8A44FEF05F051EF05F05EEFC1
:100AA00005F00F501010D8B458EF05F05BEF05F0CB
:100AB000010E5CEF05F0000E0F6E106A0E0E33187B
:100AC000D8A465EF05F067EF05F0B1EF05F00F5022
:100AD0001010D8A46EEF05F070EF05F08CEF05F064
:100AE000010E0126000E022203220422180E011814
:100AF000021003100410D8A480EF05F082EF05F077
:100B0000B1EF05F0000E016E000E026E000E036ED6
:100B1000000E046EB1EF05F00F041010D8A493EF8F
:100B200005F095EF05F0B1EF05F0010E0526000E7A
:100B30000622072208223C0E05180610071008108E
:100B4000D8A4A5EF05F0A7EF05F0B1EF05F0000E72
:100B5000056E000E066E000E076E000E086EB1EFF9
:100B600005F00D0E3318D8A4B8EF05F0BAEF05F074
:100B700006EF06F00F501010D8A4C1EF05F0C3EF38
:100B800005F0E0EF05F00106000E025A035A045A80
:100B900001280AE1022808E1032806E10428D8A474
:100BA000D4EF05F0D6EF05F006EF06F0170E016E54
:100BB000000E026E000E036E000E046E06EF06F0CD
:100BC0000F041010D8A4E7EF05F0E9EF05F006EFE9
:100BD00006F00506000E065A075A085A05280AE1CB
:100BE000062808E1072806E10828D8A4FAEF05F04E
:100BF000FCEF05F006EF06F03B0E056E000E066EEC
:100C0000000E076E000E086E06EF06F01200000ED2
:100C10001F6E000E206E000E216E000E226E1B5005
:100C20001C101D101E10D8B418EF06F01AEF06F0B5
:100C300050EF06F0010E236E24EF06F0D8901B361D
:100C40001C361D361E36232A1EAE29EF06F02BEF6A
:100C500006F01EEF06F0D8901F36203621362236D9
:100C60001B50175C1C5018581D5019581E501A580C
:100C7000D8A03DEF06F03FEF06F048EF06F01B501E
:100C8000175E1C50185A1D50195A1E501A5A1F80B0
:100C9000D8901E321D321C321B32232E2BEF06F051
:100CA0001FC017F020C018F021C019F022C01AF0A0
:100CB00012003B0E09180A100B100C10D8A463EF99
:100CC00006F065EF06F0A1EF06F0000E096E000ECB
:100CD0000A6E000E0B6E000E0C6E010E0526000E45
:100CE0000622072208223C0E0518061007100810DD
:100CF000D8A47DEF06F07FEF06F0A1EF06F0000E1E
:100D0000056E000E066E000E076E000E086E010ED8
:100D10000126000E022203220422180E01180210DE
:100D200003100410D8A497EF06F099EF06F0A1EF96
:100D300006F0000E016E000E026E000E036E000E35
:100D4000046E12001B501C101D101E10D8B4ABEF07
:100D500006F0ADEF06F0DDEF06F0010E1F6EB7EF07
:100D600006F0D8901B361C361D361E361F2A1EAEC6
:100D7000BCEF06F0BEEF06F0B1EF06F01B50175CBB
:100D80001C5018581D5019581E501A58D8A0CBEF97
:100D900006F0CDEF06F0D5EF06F01B50175E1C50A5
:100DA000185A1D50195A1E501A5AD8901E321D3208
:100DB0001C321B321F2EBEEF06F017C017F018C0F2
:100DC00018F019C019F01AC01AF01200176E1704A3
:100DD000D8A4EDEF06F0EFEF06F014EF07F0825025
:100DE0000F0B0F0AD8B4F7EF06F0F9EF06F006EF95
:100DF00007F03250D8B4FFEF06F001EF07F006EF2E
:100E000007F0326A82500F0B1FEF07F082500F0B72
:100E10000F0AD8A40EEF07F010EF07F01EEF07F04F
:100E2000010E326E1EEF07F01750D8A41AEF07F02C
:100E30001CEF07F01EEF07F002EF07F0FF0E1200A5
:100E40001C6A17501C24D96EDA6ADF50836E1CC0EE
:100E500018F0010E196E182A30EF07F0D8901936E5
:100E6000182E2EEF07F08050F00B1910806E030E35
:100E70001B6EE80E1A6E1A06D8A01B061A2806E189
:100E80001B28D8A446EF07F048EF07F03BEF07F028
:100E90001C2A030E1C644FEF07F051EF07F021EFFF
:100EA00007F012000600F2A458EF07F05AEF07F01F
:100EB00079EF07F0080ED624D66E000ED720D76E35
:100EC0000D4A0E2A210E0D1807E14E0E0E18D8A459
:100ED0006CEF07F06EEF07F078EF07F0000E0E6E84
:100EE000000E0D6E010E0926000E0A220B220C22A6
:100EF000F294349211006C0EF66E0F0EF76E000E27
:100F0000F86E00EE28F010EE0BF00900F5CFEEFFC2
:100F1000E550E150FAE100EE01F0160EEE6AE80647
:100F2000FDE134903492000101EF03F0F28C816A0C
:100F3000936A0F0EC16EA3EC07F0F28EAEEC07F0D1
:100F4000BCEC07F01200D58CD59AD58ED586000E54
:100F5000D76E060ED66EF294F28A1200956A9250FF
:100F6000F00B926E8050F00B806E1200E721CB6B7D
:070F70002D6EEE23EF6F016F
:080F780094500F09946E120061
:020000040020DA
:08000000FFFFFFFFFFFFFFFF00
:020000040030CA
:0E000000FF071F1FFF8285FF0FC00FE00F409C
:00000001FF
