:020000040000FA
:04000000BFEF0CF052
:10168900010001C58AC5881200C58665EC0BF012F8
:1016990000C58265EC0BF01200C58065EC0BF012F9
:1016A90000C58465EC0BF0120049EC0BF046EC0B1D
:1016B900F0C9501200416E41C0C9FF65EC0BF01230
:1016C900009EA66AEF0BF06CEF0BF065EF0BF09E36
:1016D9009612000F0EC16E1E0E936EF19E8150E0A0
:1016E90009816E120094869488280EC66E310EC840
:1016F9006EC79CC78E9E96A1961200416E9EA888C1
:10170900EF0BF08AEF0BF083EF0BF09E9841C0AD21
:10171900FF1200496E000E416E4850FDEC0BF001BE
:101729000E416E4950FDEC0BF01200C08EC09AC0FC
:1017390088C096C090C082C094C292C19AC198C410
:101749006AC36AC2801200948E949CAC9CAC8AAC29
:1017590098AC96AC84AB8EAB9CAB88B896810EAF37
:101769006E1200336A6EEC0BF0C5EC0EF09AEC0BBE
:10177900F077EC0BF01AEC0CF0A8EC0BF012004A25
:101789006E51EC0BF0D00E5FEC0BF04A505FEC0B96
:10179900F049505FEC0BF055EC0BF01200426E5122
:1017A900EC0BF0A00E5FEC0BF042505FEC0BF04D30
:1017B900EC0BF0A10E5FEC0BF059EC0BF0436E55FE
:1017C900EC0BF043501200426E51EC0BF0D00E5F5F
:1017D900EC0BF042505FEC0BF04DEC0BF0D10E5FCF
:1017E900EC0BF059EC0BF0436E55EC0BF043501237
:1017F90000426E41B003EF0CF006EF0CF082820755
:10180900EF0CF0829242C083FF82848294958E828B
:101819008082928284829483BE15EF0CF017EF0CBC
:10182900F00EEF0CF08290959E1200000EE8EC0B82
:10183900F04B6E4B508009496E000EC4EC0BF00260
:101849000EE8EC0BF04B6E4B504009496E020EC48A
:10185900EC0BF0930E496E070EC4EC0BF0000EE88A
:10186900EC0BF04B6E4B507F0B496E000EC4EC0B2A
:03187900F012006A
:10187D0056696577206C6F670000000000436C654A
:10188D006172206C6F6700000000446F776E6C6FA3
:10189D006164206C6F67005365742074696D650019
:1018AD00000000004F4E00474E0047310047320008
:1018BD004733004734004735004752004320004E60
:1018CD006E51EC0BF0A00E5FEC0BF04E505FEC0B7D
:1018DD00F049505FEC0BF055EC0BF0B80E4A6E0B67
:1018ED000E4B6E000E4C6E000E4D6E4A06000E4BEA
:1018FD005A4C5A4D5A4A280AE14B2808E14C280601
:10190D00E14D28D8A48DEF0CF08FEF0CF07CEF0C8F
:10191D00F01200A6EF0CF042C0F6FF43C0F7FFF83F
:10192D006A050EF76403D00800F55005D0F6CFE92F
:10193D00FFF7CFEAFFEF5082EC0BF0424A432A4209
:10194D00C0F6FF43C0F7FFF86A050EF76403D00831
:10195D0000F55005D0F6CFE9FFF7CFEAFFEF5000C5
:10196D0009D8A4BCEF0CF0BEEF0CF092EF0CF01206
:10197D00007D0EF66E180EF76E000EF86E00EE601E
:10198D00F010EE4FF00900F5CFEEFFE550E150FA03
:10199D00E1890EF66E160EF76E000EF86E0900F563
:1019AD00CF58F00900F5CF59F00900F5CF5AF000E6
:1019BD00EEAFF0120EEE6AE806FDE100EE01F0402A
:1019CD000EEE6AE806FDE1000EF86E000177EF0EEF
:1019DD00F04C6E4CC04AF0D8904A36D8904A36C278
:1019ED0050C30B4A10C26EC282C2B200EF0DF0029C
:1019FD00EF0DF0FBEF0CF0C350C4CF4AF04B6A4A29
:101A0D00C04BF04A6A4A104D6E4B504E6E4DC04160
:101A1D00F04EC042F0000E446E0A0E436E88EC0D7F
:101A2D00F041C04DF042C04EF04DC048F04EC0499F
:101A3D00F0120043504410D8B427EF0DF029EF0DEC
:101A4D00F04DEF0DF0010E456E31EF0DF0D89043D6
:101A5D00364436452A44AE36EF0DF038EF0DF02DF5
:101A6D00EF0DF04350415C44504258D8A041EF0D6A
:101A7D00F043EF0DF047EF0DF04350415E445042FF
:101A8D005AD89044324332452E38EF0DF041C041C3
:101A9D00F042C042F01200000E416E4550FDEC0BBD
:101AAD00F06FEF0DF0010E416E43C0F6FF44C0F72D
:101ABD00FFF86A050EF76403D00800F55005D0F65F
:101ACD00CFE9FFF7CFEAFFEF50FDEC0BF0434A44AF
:101ADD002A43C0F6FF44C0F7FFF86A050EF764030A
:101AED00D00800F55005D0F6CFE9FFF7CFEAFFEFAC
:101AFD00500009D8A485EF0DF087EF0DF059EF0DCB
:101B0D00F01200000E466E000E456E43504410D884
:101B1D00B493EF0DF095EF0DF0BDEF0DF0010E4705
:101B2D006E9DEF0DF0D89043364436472A44AEA251
:101B3D00EF0DF0A4EF0DF099EF0DF0D8904536466E
:101B4D00364350415C44504258D8A0B0EF0DF0B22E
:101B5D00EF0DF0B7EF0DF04350415E4450425A4542
:101B6D0080D89044324332472EA4EF0DF045C0414A
:101B7D00F046C042F01200416E4104D8A4C9EF0DE9
:101B8D00F0CBEF0DF0EEEF0DF03EEC10F0376E37C1
:101B9D0028D8B4D4EF0DF0D6EF0DF0E2EF0DF05ADA
:101BAD0050D8B4DCEF0DF0DEEF0DF0E2EF0DF05A92
:101BBD006A3750FBEF0DF03728D8A4E8EF0DF0EAA7
:101BCD00EF0DF0FAEF0DF0010E5A6EFAEF0DF04138
:101BDD0050D8A4F4EF0DF0F6EF0DF0FAEF0DF03E46
:101BED00EC10F0FBEF0DF0FF0E1200000E246E0056
:101BFD000E236E346A000E226E000E216EDB0E4334
:101C0D006E2F0E446E800E456E52EC0DF0D00E43CD
:101C1D006E2F0E446EC50E456E52EC0DF0200E4625
:101C2D006EA10E476E070E486E000E496E460600F9
:101C3D000E475A485A495A46280AE1472808E148AA
:101C4D002806E14928D8A42EEF0EF030EF0EF01D36
:101C5D00EF0EF0000E416E010EFDEC0BF0010E3398
:101C6D006E1200020EE8EC0BF0146E010EE8EC0B98
:101C7D00F0156E000EE8EC0BF0166E14AC49EF0E7D
:101C8D00F04BEF0EF056EF0EF014380F0B010B303A
:101C9D000F386E14500F0B300F396E5FEF0EF014BE
:101CAD00380F0B030B300F386E14500F0B300F39EC
:101CBD006E3A0E3A6E15380F0B0F0B300F3B6E153B
:101CCD00500F0B300F3C6E3A0E3D6E16380F0B0F4A
:101CDD000B300F3E6E16500F0B300F3F6E406A12D9
:101CED0000B6EC0BF0010EC2EC0DF0366E040EEFEB
:101CFD00EC0CF048C02FF049C030F09EEF0EF00F05
:101D0D00EC12F079EF0EF0D1EC13F079EF0EF0EB61
:101D1D00EC12F079EF0EF059EC11F079EF0EF0FCBA
:101D2D00EC0DF079EF0EF045EC15F079EF0EF03388
:101D3D0050566E576A5750000AD8B4A8EF0EF07976
:101D4D00EF0EF05650000AD8B486EF0EF0010AD807
:101D5D00B48AEF0EF0030AD8B48EEF0EF0010AD854
:101D6D00B49AEF0EF0070AD8B492EF0EF0010AD82C
:101D7D00B496EF0EF079EF0EF000EF00F0956A9447
:101D8D0050F80B946E8290C30E436ECD0EE82EFE6E
:101D9D00D7432EFCD70000000E416E330EFDEC0B29
:101DAD00F01B0E436E9E0EE82EFED7432EFCD70081
:101DBD00D0000E416E330EFDEC0BF0A60EE82EFE9C
:101DCD00D700D0000E416E330EFDEC0BF000D000AD
:101DDD00D00000000E416E020EFDEC0BF0A60EE8D9
:101DED002EFED700D0000E416E380EFDEC0BF0A686
:101DFD000EE82EFED700D0000E416E010EFDEC0B4D
:101E0D00F0040E436E3E0EE82EFED7432EFCD70097
:101E1D000E416E0C0EFDEC0BF0A60EE82EFED7005B
:101E2D00D01200466A42BE20EF0FF01EEF0FF026D3
:101E3D00EF0FF0416C421ED8B0422A010E466E449F
:101E4D00BE2DEF0FF02BEF0FF031EF0FF0436C4481
:101E5D001ED8B0442A43504410D8B438EF0FF03A8E
:101E6D00EF0FF05EEF0FF0010E456E42EF0FF0D861
:101E7D009043364436452A44AE47EF0FF049EF0FF5
:101E8D00F03EEF0FF04350415C44504258D8A05201
:101E9D00EF0FF054EF0FF058EF0FF04350415E4449
:101EAD0050425AD89044324332452E49EF0FF046F6
:101EBD0050D8B464EF0FF066EF0FF06AEF0FF041FA
:101ECD006C421ED8B0422A41C041F042C042F012CD
:101EDD0000466A44BE77EF0FF075EF0FF07DEF0F00
:101EED00F0436C441ED8B0442A010E466E42BE84A7
:101EFD00EF0FF082EF0FF08AEF0FF0416C421ED81A
:101F0D00B0422A010E461A000E486E000E476E436F
:101F1D00504410D8B495EF0FF097EF0FF0BFEF0FBF
:101F2D00F0010E456E9FEF0FF0D8904336443645C5
:101F3D002A44AEA4EF0FF0A6EF0FF09BEF0FF0D8F1
:101F4D0090473648364350415C44504258D8A0B271
:101F5D00EF0FF0B4EF0FF0B9EF0FF04350415E44C7
:101F6D0050425A4780D89044324332452EA6EF0F47
:101F7D00F04650D8B4C5EF0FF0C7EF0FF0CBEF0F11
:101F8D00F0476C481ED8B0482A47C041F048C042BF
:101F9D00F01200000E416E010EFDEC0BF0000E472D
:101FAD006E000E466E020E46184710D8B4E1EF0FC4
:101FBD00F0E3EF0FF0EDEF0FF0050E46184710D8D8
:101FCD00A4EBEF0FF0EDEF0FF0F5EF0FF04650AF84
:101FDD000FD96EDA6A3A0EDF6E1AEF10F0080E4660
:101FED00184710D8B4FDEF0FF0FFEF0FF009EF1009
:101FFD00F00B0E46184710D8A407EF10F009EF109C
:10200D00F011EF10F04650AF0FD96EDA6A200EDFE7
:10201D006E1AEF10F04650AF0FD96EDA6A3550D305
:10202D00EC0BF0DF6E352A464A472A47BE28EF10E3
:10203D00F0475009E10E0E465CD8A028EF10F02AAB
:10204D00EF10F0D9EF0FF0630E3518D8A431EF1063
:10205D00F033EF10F034EF10F0356A0001BD6BAFC7
:10206D000E436E446AC20E456E52EC0DF0120081A5
:10207D009A818C818E81B246EF10F048EF10F04BB3
:10208D00EF10F0010EC1EF10F081B450EF10F052CF
:10209D00EF10F055EF10F0040EC1EF10F081B65AAD
:1020AD00EF10F05CEF10F05FEF10F0070EC1EF10C6
:1020BD00F081B864EF10F066EF10F069EF10F00AE0
:1020CD000EC1EF10F0818A819C818E81B271EF106B
:1020DD00F073EF10F076EF10F0020EC1EF10F081FB
:1020ED00B47BEF10F07DEF10F080EF10F0050EC116
:1020FD00EF10F081B685EF10F087EF10F08AEF103A
:10210D00F0080EC1EF10F081B88FEF10F091EF10C5
:10211D00F094EF10F00B0EC1EF10F0818A818C81DD
:10212D009E819E81B29DEF10F09FEF10F0A2EF10F7
:10213D00F0030EC1EF10F081B4A7EF10F0A9EF106E
:10214D00F0ACEF10F0060EC1EF10F081B6B1EF104C
:10215D00F0B3EF10F0B6EF10F0090EC1EF10F081F3
:10216D00B8BBEF10F0BDEF10F0C0EF10F00C0EC1CA
:10217D00EF10F0FF0E1200000E546E000E536E02A3
:10218D000E53185410D8B4CEEF10F0D0EF10F0E677
:10219D00EF10F0050E53185410D8A4D8EF10F0DA44
:1021AD00EF10F0DCEF10F0E6EF10F04F505324D9A4
:1021BD006EDA6ADF50496E345066EC0CF0342A53F7
:1021CD004A542A54BEF4EF10F0545009E1080E534E
:1021DD005CD8A0F4EF10F0F6EF10F0C6EF10F05051
:1021ED0050D96EDA6ADF50496E345066EC0CF0341B
:1021FD002A5050D96EDA6A010ED926DF50496E3455
:10220D005066EC0CF0342A51C041F052C042F0003F
:10221D000E446E0A0E436E6FEC0FF04150300F49B5
:10222D006E345066EC0CF0342A51C041F052C0426D
:10223D00F0000E446E0A0E436E18EC0FF041503054
:10224D000F496E345066EC0CF0342A234A242A0BC5
:10225D000E23182410D8A436EF11F038EF11F03EEC
:10226D00EF11F0000E246E0A0E236E4EEF11F021C9
:10227D004A222A0A0E21182210D8A448EF11F04A3A
:10228D00EF11F04EEF11F0000E226E000E216E6375
:10229D000E3418D8A455EF11F057EF11F058EF1177
:1022AD00F0346A1200000E526E000E516E2350244F
:1022BD0010D8A464EF11F066EF11F0A6EF11F0D86D
:1022CD000E436E2F0E446E800E456E52EC0DF0A730
:1022DD000E436E2F0E446EC30E456E52EC0DF02064
:1022ED000E496EA10E4A6E070E4B6E000E4C6E49D6
:1022FD0006000E4A5A4B5A4C5A49280AE14A2808F8
:10230D00E14B2806E14C28D8A48FEF11F091EF1185
:10231D00F07EEF11F0000E416E010EFDEC0BF0752D
:10232D000E426E2F0E436E90EC0CF0F20E426E2F9D
:10233D000E436E90EC0CF0010E336E0EEF12F09B0F
:10234D000E436E2F0E446E840E456E52EC0DF02032
:10235D000E4D6EA10E4E6E070E4F6E000E506E4D51
:10236D0006000E4E5A4F5A505A4D280AE14E280873
:10237D00E14F2806E15028D8A4C7EF11F0C9EF119D
:10238D00F0B6EF11F0000E416E010EFDEC0BF08971
:10239D000E426E2F0E436E90EC0CF0F20E426E2F2D
:1023AD000E436E90EC0CF021500A0DF3CF35F0F684
:1023BD00EF11F05150300F82EC0BF0200E82EC0B30
:1023CD00F0D0EC0FF0AF0E426E436A90EC0CF0F2D1
:1023DD000E426E2F0E436E90EC0CF0514A522A2392
:1023ED0050515C5250800A486E2450800A4858D88B
:1023FD00A003EF12F005EF12F0E0EF11F0000E4127
:10240D006E010EFDEC0BF0010E336E356A346A125F
:10241D000038EC0EF03604D8A417EF12F019EF12B5
:10242D00F04BEF12F0325007E1070E315CD8B022BD
:10243D00EF12F024EF12F035EF12F0314A322A3854
:10244D000E4F6E3150030DF350940F506E2FC0513F
:10245D00F030C052F0C2EC10F090EF12F0070E31D8
:10246D00183210D8A43DEF12F03FEF12F045EF12E5
:10247D00F0000E326E070E316E90EF12F0000E323C
:10248D006E010E316E90EF12F0020E3618D8A45276
:10249D00EF12F054EF12F06FEF12F0325009E1022B
:1024AD000E315CD8A05DEF12F05FEF12F045EF1228
:1024BD00F0325007E1080E315CD8B068EF12F06AC7
:1024CD00EF12F045EF12F03106D8A0320626EF12CA
:1024DD00F0030E3618D8A476EF12F078EF12F07ED6
:1024ED00EF12F0000E326E080E316E90EF12F00BFF
:1024FD000E3618D8A485EF12F087EF12F090EF1278
:10250D00F0000E416E010EFDEC0BF0010E336EEA84
:10251D00EF12F0305009E1640E2F5CD8A099EF1244
:10252D00F09BEF12F09FEF12F0000E306E630E2F46
:10253D006EED0E436E2F0E446E820E456E52EC0DF7
:10254D00F0380E436E446AC00E456E52EC0DF0E845
:10255D000E436E2F0E446E890E456E52EC0DF0310A
:10256D0050030DF350940F556E55C043F0446AC996
:10257D000E456E52EC0DF0980E436E2F0E446E8E7E
:10258D000E456E52EC0DF0CE0E486E2FC041F03060
:10259D00C042F0000E446E0A0E436E88EC0DF04101
:1025AD0050300F8EEC0BF0CF0E486E2FC041F03037
:1025BD00C042F0000E446E0A0E436E20EC0DF04149
:1025CD0050300F8EEC0BF0120023502410D8A4F2D3
:1025DD00EF12F0F4EF12F028EF13F0D80E436E2F38
:1025ED000E446E800E456E52EC0DF0B30E436E2F01
:1025FD000E446EC50E456E52EC0DF0200E4D6EA1C3
:10260D000E4E6E070E4F6E000E506E4D06000E4EA6
:10261D005A4F5A505A4D280AE14E2808E14F2806C4
:10262D00E15028D8A41DEF13F01FEF13F00CEF139A
:10263D00F0000E416E010EFDEC0BF0010E336ED06D
:10264D00EF13F0FB0E436E2F0E446E800E456E524F
:10265D00EC0DF0ED0E436E2F0E446E830E456E5253
:10266D00EC0DF0F80E436E2F0E446E8B0E456E5230
:10267D00EC0DF0980E436E2F0E446E8E0E456E527D
:10268D00EC0DF0C00E486E1F50300F8EEC0BF05855
:10269D00505910D8B455EF13F057EF13F061EF13F5
:1026AD00F021500A0DF3CF35F0D0EC0FF0000E599C
:1026BD006E000E586E3604D8A467EF13F069EF1351
:1026CD00F086EF13F0FF0E23244A6EFF0E24204BED
:1026DD006E4A50295C2A50800A4C6E4B50800A4C31
:1026ED0058D8B07CEF13F07EEF13F086EF13F0D0D7
:1026FD00EC0FF0294A2A2A1F4A202AD0EF13F002A4
:10270D000E3618D8A48DEF13F08FEF13F0B2EF1330
:10271D00F02ABE9AEF13F02A5008E12904D8A09AA6
:10272D00EF13F09CEF13F0B2EF13F03550EC0F35C3
:10273D006E3550D8A4A5EF13F0A7EF13F0A8EF1343
:10274D00F0356AD0EC0FF02906D8A02A061F06D85E
:10275D00A02006D0EF13F00C0E3618D8A4B9EF1345
:10276D00F0BBEF13F0D0EF13F0000E416E010EFD34
:10277D00EC0BF0000E596E010E586E356A346A007E
:10278D000E206E000E1F6E000E2A6E000E296E2496
:10279D00EF13F0120025502610D8A4D8EF13F0DA5D
:1027AD00EF13F0E4EF13F0FD0E436E2F0E446E8029
:1027BD000E456E52EC0DF0ECEF13F0FD0E436E2F47
:1027CD000E446EC00E456E52EC0DF02B500D0DF3F8
:1027DD0050600F466E46C043F0446A830E456E52FC
:1027ED00EC0DF02B500D0DF3506D0F466E46C043A2
:1027FD00F0446AC30E456E52EC0DF03604D8A40AAF
:10280D00EF14F00CEF14F05AEF14F0000E416E01BE
:10281D000EFDEC0BF025502610D8A418EF14F01A6D
:10282D00EF14F020EF14F0000E266E000E256E2D25
:10283D00EF14F02C5007E1020E2B5CD8B029EF14E9
:10284D00F02BEF14F02DEF14F02B4A2C2A000E264E
:10285D006E010E256E28BE36EF14F038EF14F04AD7
:10286D00EF14F028BE46EF14F0285007E1030E27B1
:10287D005CD8B044EF14F046EF14F04AEF14F02793
:10288D004A282A44EF15F0030E27182810D8A45211
:10289D00EF14F054EF14F044EF15F0000E286E0312
:1028AD000E276E44EF15F0020E3618D8A461EF1402
:1028BD00F063EF14F0C7EF14F0000E416E010EFD42
:1028CD00EC0BF025042610D8A46FEF14F071EF1463
:1028DD00F077EF14F0000E266E010E256E92EF14B8
:1028ED00F02B502C10D8B47EEF14F080EF14F09232
:1028FD00EF14F02C5007E1040E2B5CD8B089EF14C7
:10290D00F08BEF14F092EF14F0000E266E010E25F1
:10291D006E2B06D8A02C06000E266E000E256E28F6
:10292D00BEA1EF14F0285008E12704D8A0A1EF14A0
:10293D00F0A3EF14F0B6EF14F028BEB1EF14F028A9
:10294D005007E1040E275CD8B0AFEF14F0B1EF14CF
:10295D00F0B6EF14F02706D8A0280644EF15F0279F
:10296D00502810D8A4BDEF14F0BFEF14F044EF15AC
:10297D00F0000E286E000E276E44EF15F044EF1593
:10298D00F00B0E3618D8A4CEEF14F0D0EF14F0E201
:10299D00EF14F027502810D8A4D7EF14F0D9EF1466
:1029AD00F0E2EF14F0000E416E010EFDEC0BF002A3
:1029BD000E336E44EF15F00B0E3618D8A4E9EF1454
:1029CD00F0EBEF14F0FDEF14F027042810D8A4F26B
:1029DD00EF14F0F4EF14F0FDEF14F0000E416E0162
:1029ED000EFDEC0BF0050E336E44EF15F00B0E36AD
:1029FD0018D8A404EF15F006EF15F019EF15F00235
:102A0D000E27182810D8A40EEF15F010EF15F01999
:102A1D00EF15F0000E416E010EFDEC0BF0040E33C0
:102A2D006E44EF15F00B0E3618D8A420EF15F022DA
:102A3D00EF15F035EF15F0030E27182810D8A42A3E
:102A4D00EF15F02CEF15F035EF15F0000E416E017E
:102A5D000EFDEC0BF0030E336E44EF15F00C0E363D
:102A6D0018D8A43CEF15F03EEF15F0C5EF14F000AB
:102A7D000E416E010EFDEC0BF0336A120038500A58
:102A8D000DF3CF4BF0F4CF4CF039504B26000E4CDC
:102A9D0022F00E4B241D6EFD0E4C201E6E3B500A77
:102AAD000DF3CF4BF0F4CF4CF03C504B26000E4CB9
:102ABD0022F00E4B241B6EFD0E4C201C6E3E500A58
:102ACD000DF3CF4BF0F4CF4CF03F504B26000E4C96
:102ADD0022F00E4B24196EFD0E4C201A6EBE0E43C5
:102AED006E2F0E446E830E456E52EC0DF0020E36B7
:102AFD0018D8A484EF15F086EF15F098EF15F001B6
:102B0D000E1724416E000E1820426E000E446E0307
:102B1D000E436E18EC0FF041C017F042C018F0B222
:102B2D00EF16F03604D8A49EEF15F0A0EF15F0F2D5
:102B3D00EF15F017501810D8A4A7EF15F0A9EF1541
:102B4D00F0BBEF15F0010E1D24416E000E1E20424C
:102B5D006E000E446E180E436E18EC0FF041C01D42
:102B6D00F042C01EF0B2EF16F017041810D8A4C230
:102B7D00EF15F0C4EF15F0D6EF15F0010E1B244143
:102B8D006E000E1C20426E000E446E3C0E436E18FD
:102B9D00EC0FF041C01BF042C01CF0B2EF16F0027A
:102BAD000E17181810D8A4DEEF15F0E0EF15F0B2DF
:102BBD00EF16F0010E1924416E000E1A20426E0020
:102BCD000E446E3C0E436E18EC0FF041C019F042EE
:102BDD00C01AF0B2EF16F00C0E3618D8A4F9EF1596
:102BED00F0FBEF15F0A2EF16F0000E526E000E5135
:102BFD006E800E496E000EC4EC0BF01DC041F01E30
:102C0D00C042F0000E446E0A0E436E18EC0FF041F8
:102C1D00C04BF042C04CF01DC041F01EC042F00050
:102C2D000E446E0A0E436E6FEC0FF04138F00B4BF5
:102C3D0010496E020EC4EC0BF01BC041F01CC042DB
:102C4D00F0000E446E0A0E436E18EC0FF041C04BAF
:102C5D00F042C04CF01BC041F01CC042F0000E44CD
:102C6D006E0A0E436E6FEC0FF04138F00B4B1049AE
:102C7D006E010EC4EC0BF019C041F01AC042F00009
:102C8D000E446E0A0E436E18EC0FF041C04BF0422D
:102C9D00C04CF019C041F01AC042F0000E446E0A4B
:102CAD000E436E6FEC0FF04138F00B4B10496E0078
:102CBD000EC4EC0BF07F0E5116000E521651C0498A
:102CCD00F0000EC4EC0BF0000E416E010EFDEC0B8E
:102CDD00F0C70E436E2F0E446E800E456E52EC0DF6
:102CED00F0E00E436E2F0E446EC00E456E52EC0D8D
:102CFD00F0200E4D6EA10E4E6E070E4F6E000E5053
:102D0D006E4D06000E4E5A4F5A505A4D280AE14E3E
:102D1D002808E14F2806E15028D8A498EF16F09A1C
:102D2D00EF16F087EF16F0000E416E010EFDEC0B65
:102D3D00F0336AB2EF16F00B0E3618D8A4A9EF16C1
:102D4D00F0ABEF16F0B2EF16F0000E416E010EFD76
:102D5D00EC0BF09FEF16F01DC041F01EC042F000CD
:102D6D000E446E0A0E436E6FEC0FF04150300F386B
:102D7D006E1DC041F01EC042F0000E446E0A0E439F
:102D8D006E18EC0FF04150300F396E1BC041F01C26
:102D9D00C042F0000E446E0A0E436E6FEC0FF04110
:102DAD0050300F3B6E1BC041F01CC042F0000E4472
:102DBD006E0A0E436E18EC0FF04150300F3C6E1939
:102DCD00C041F01AC042F0000E446E0A0E436E6F01
:102DDD00EC0FF04150300F3E6E19C041F01AC04259
:102DED00F0000E446E0A0E436E18EC0FF041503099
:102DFD000F3F6E9FEF17F0010E0C26000E0D220EE9
:102E0D00220F22650E0C180D100E100F10D8A412E3
:102E1D00EF17F014EF17F01DEF17F0380E436E4457
:102E2D006AC30E456E52EC0DF0B9EF17F0C80E0CDB
:102E3D00180D100E100F10D8A427EF17F029EF174B
:102E4D00F0B9EF17F0000E0C6E000E0D6E000E0EA9
:102E5D006E000E0F6EF50E436E2F0E446EC30E45B3
:102E6D006E52EC0DF0B9EF17F0010E0C26000E0DA1
:102E7D00220E220F22650E0C180D100E100F10D8F9
:102E8D00A44BEF17F04DEF17F04FEF17F014EF17AE
:102E9D00F0C80E0C180D100E100F10D8A459EF1706
:102EAD00F05BEF17F0B9EF17F0000E0C6E000E0D82
:102EBD006E000E0E6E000E0F6EF50E436E2F0E444D
:102ECD006EC60E456E52EC0DF0B9EF17F0010E0CFB
:102EDD0026000E0D220E220F22650E0C180D100E5F
:102EED00100F10D8A47DEF17F07FEF17F081EF17BB
:102EFD00F014EF17F0C80E0C180D100E100F10D89F
:102F0D00A48BEF17F08DEF17F0B9EF17F0000E0C43
:102F1D006E000E0D6E000E0E6E000E0F6EF50E4352
:102F2D006E2F0E446EC90E456E52EC0DF0B9EF17B3
:102F3D00F017C04BF018C04CF04C50000AD8B4AA92
:102F4D00EF17F0B9EF17F04B50000AD8B402EF1796
:102F5D00F0010AD8B43BEF17F0030AD8B46DEF17A0
:102F6D00F0B9EF17F01200004E6F204C6F67732011
:102F7D00746F20446F776E6C6F6164004E4F2054F8
:102F8D00494D452020204745415220535000444F84
:102F9D00574E4C4F414445442E00544F20444F57FB
:102FAD004E4C4F414400544F20444953504C4159CD
:102FBD000048483A4D4D3A53530054494D4520531E
:102FCD00455400434C4541524544004E4F204C4F13
:102FDD004753005355434345535300474541520012
:102FED0054696D65000A0D00202000475200230032
:032FFD002A0000A7
:020000040020DA
:08000000FFFFFFFFFFFFFFFF00
:020000040030CA
:0E000000FF071F1FFF8285FF0FC00FE00F409C
:00000001FF
